{
  "_format": "hh-sol-artifact-1",
  "contractName": "OffchainResolver",
  "sourceName": "contracts/OffchainResolver.sol",
  "abi": [
    {
      "inputs": [],
      "stateMutability": "nonpayable",
      "type": "constructor"
    },
    {
      "inputs": [],
      "name": "ECDSAInvalidSignature",
      "type": "error"
    },
    {
      "inputs": [
        {
          "internalType": "uint256",
          "name": "length",
          "type": "uint256"
        }
      ],
      "name": "ECDSAInvalidSignatureLength",
      "type": "error"
    },
    {
      "inputs": [
        {
          "internalType": "bytes32",
          "name": "s",
          "type": "bytes32"
        }
      ],
      "name": "ECDSAInvalidSignatureS",
      "type": "error"
    },
    {
      "inputs": [],
      "name": "InvalidInitialization",
      "type": "error"
    },
    {
      "inputs": [],
      "name": "NotInitializing",
      "type": "error"
    },
    {
      "inputs": [
        {
          "internalType": "address",
          "name": "sender",
          "type": "address"
        },
        {
          "internalType": "string[]",
          "name": "urls",
          "type": "string[]"
        },
        {
          "internalType": "bytes",
          "name": "callData",
          "type": "bytes"
        },
        {
          "internalType": "bytes4",
          "name": "callbackFunction",
          "type": "bytes4"
        },
        {
          "internalType": "bytes",
          "name": "extraData",
          "type": "bytes"
        }
      ],
      "name": "OffchainLookup",
      "type": "error"
    },
    {
      "inputs": [
        {
          "internalType": "address",
          "name": "owner",
          "type": "address"
        }
      ],
      "name": "OwnableInvalidOwner",
      "type": "error"
    },
    {
      "inputs": [
        {
          "internalType": "address",
          "name": "account",
          "type": "address"
        }
      ],
      "name": "OwnableUnauthorizedAccount",
      "type": "error"
    },
    {
      "anonymous": false,
      "inputs": [
        {
          "indexed": false,
          "internalType": "uint64",
          "name": "version",
          "type": "uint64"
        }
      ],
      "name": "Initialized",
      "type": "event"
    },
    {
      "anonymous": false,
      "inputs": [
        {
          "indexed": false,
          "internalType": "address[]",
          "name": "signers",
          "type": "address[]"
        }
      ],
      "name": "NewSigners",
      "type": "event"
    },
    {
      "anonymous": false,
      "inputs": [
        {
          "indexed": true,
          "internalType": "address",
          "name": "previousOwner",
          "type": "address"
        },
        {
          "indexed": true,
          "internalType": "address",
          "name": "newOwner",
          "type": "address"
        }
      ],
      "name": "OwnershipTransferred",
      "type": "event"
    },
    {
      "inputs": [
        {
          "internalType": "string",
          "name": "_url",
          "type": "string"
        },
        {
          "internalType": "address[]",
          "name": "_signers",
          "type": "address[]"
        }
      ],
      "name": "initialize",
      "outputs": [],
      "stateMutability": "nonpayable",
      "type": "function"
    },
    {
      "inputs": [
        {
          "internalType": "address",
          "name": "target",
          "type": "address"
        },
        {
          "internalType": "uint64",
          "name": "expires",
          "type": "uint64"
        },
        {
          "internalType": "bytes",
          "name": "request",
          "type": "bytes"
        },
        {
          "internalType": "bytes",
          "name": "result",
          "type": "bytes"
        }
      ],
      "name": "makeSignatureHash",
      "outputs": [
        {
          "internalType": "bytes32",
          "name": "",
          "type": "bytes32"
        }
      ],
      "stateMutability": "pure",
      "type": "function"
    },
    {
      "inputs": [],
      "name": "owner",
      "outputs": [
        {
          "internalType": "address",
          "name": "",
          "type": "address"
        }
      ],
      "stateMutability": "view",
      "type": "function"
    },
    {
      "inputs": [],
      "name": "renounceOwnership",
      "outputs": [],
      "stateMutability": "nonpayable",
      "type": "function"
    },
    {
      "inputs": [
        {
          "internalType": "bytes",
          "name": "name",
          "type": "bytes"
        },
        {
          "internalType": "bytes",
          "name": "data",
          "type": "bytes"
        }
      ],
      "name": "resolve",
      "outputs": [
        {
          "internalType": "bytes",
          "name": "",
          "type": "bytes"
        }
      ],
      "stateMutability": "view",
      "type": "function"
    },
    {
      "inputs": [
        {
          "internalType": "bytes",
          "name": "response",
          "type": "bytes"
        },
        {
          "internalType": "bytes",
          "name": "extraData",
          "type": "bytes"
        }
      ],
      "name": "resolveWithProof",
      "outputs": [
        {
          "internalType": "bytes",
          "name": "",
          "type": "bytes"
        }
      ],
      "stateMutability": "view",
      "type": "function"
    },
    {
      "inputs": [
        {
          "internalType": "address[]",
          "name": "_signers",
          "type": "address[]"
        }
      ],
      "name": "setSigners",
      "outputs": [],
      "stateMutability": "nonpayable",
      "type": "function"
    },
    {
      "inputs": [
        {
          "internalType": "string",
          "name": "_url",
          "type": "string"
        }
      ],
      "name": "setURL",
      "outputs": [],
      "stateMutability": "nonpayable",
      "type": "function"
    },
    {
      "inputs": [
        {
          "internalType": "address",
          "name": "",
          "type": "address"
        }
      ],
      "name": "signers",
      "outputs": [
        {
          "internalType": "bool",
          "name": "",
          "type": "bool"
        }
      ],
      "stateMutability": "view",
      "type": "function"
    },
    {
      "inputs": [
        {
          "internalType": "bytes4",
          "name": "interfaceID",
          "type": "bytes4"
        }
      ],
      "name": "supportsInterface",
      "outputs": [
        {
          "internalType": "bool",
          "name": "",
          "type": "bool"
        }
      ],
      "stateMutability": "pure",
      "type": "function"
    },
    {
      "inputs": [
        {
          "internalType": "address",
          "name": "newOwner",
          "type": "address"
        }
      ],
      "name": "transferOwnership",
      "outputs": [],
      "stateMutability": "nonpayable",
      "type": "function"
    },
    {
      "inputs": [],
      "name": "url",
      "outputs": [
        {
          "internalType": "string",
          "name": "",
          "type": "string"
        }
      ],
      "stateMutability": "view",
      "type": "function"
    }
  ],
  "bytecode": "0x60806040523480156200001157600080fd5b5033600073ffffffffffffffffffffffffffffffffffffffff168173ffffffffffffffffffffffffffffffffffffffff1603620000885760006040517f1e4fbdf70000000000000000000000000000000000000000000000000000000081526004016200007f9190620002eb565b60405180910390fd5b6200009981620000b060201b60201c565b50620000aa6200017460201b60201c565b6200034a565b60008060009054906101000a900473ffffffffffffffffffffffffffffffffffffffff169050816000806101000a81548173ffffffffffffffffffffffffffffffffffffffff021916908373ffffffffffffffffffffffffffffffffffffffff1602179055508173ffffffffffffffffffffffffffffffffffffffff168173ffffffffffffffffffffffffffffffffffffffff167f8be0079c531659141344cd1fd0a4f28419497f9722a3daafe3b4186f6b6457e060405160405180910390a35050565b6000620001866200027e60201b60201c565b90508060000160089054906101000a900460ff1615620001d2576040517ff92ee8a900000000000000000000000000000000000000000000000000000000815260040160405180910390fd5b67ffffffffffffffff80168160000160009054906101000a900467ffffffffffffffff1667ffffffffffffffff16146200027b5767ffffffffffffffff8160000160006101000a81548167ffffffffffffffff021916908367ffffffffffffffff1602179055507fc7f505b2f371ae2175ee4913f4499e1f2633a7b5936321eed1cdaeb6115181d267ffffffffffffffff6040516200027291906200032d565b60405180910390a15b50565b60007ff0c57e16840df040f15088dc2f81fe391c3923bec73e23a9662efc9c229c6a00905090565b600073ffffffffffffffffffffffffffffffffffffffff82169050919050565b6000620002d382620002a6565b9050919050565b620002e581620002c6565b82525050565b6000602082019050620003026000830184620002da565b92915050565b600067ffffffffffffffff82169050919050565b620003278162000308565b82525050565b60006020820190506200034460008301846200031c565b92915050565b612581806200035a6000396000f3fe608060405234801561001057600080fd5b50600436106100b45760003560e01c80638da5cb5b116100715780638da5cb5b1461018d5780639061b923146101ab578063a3772662146101db578063a644cbdc146101f7578063f2fde38b14610213578063f4d4d2f81461022f576100b4565b806301ffc9a7146100b95780631dcfea09146100e95780635600f04f14610119578063715018a614610137578063736c0d5b146101415780637734340814610171575b600080fd5b6100d360048036038101906100ce919061107b565b61025f565b6040516100e091906110c3565b60405180910390f35b61010360048036038101906100fe91906112c2565b6102d9565b604051610110919061137a565b60405180910390f35b6101216102f1565b60405161012e9190611414565b60405180910390f35b61013f61037f565b005b61015b60048036038101906101569190611436565b610393565b60405161016891906110c3565b60405180910390f35b61018b600480360381019061018691906114c3565b6103b3565b005b6101956103d1565b6040516101a2919061151f565b60405180910390f35b6101c560048036038101906101c09190611590565b6103fa565b6040516101d29190611666565b60405180910390f35b6101f560048036038101906101f091906116de565b6105e6565b005b610211600480360381019061020c919061188f565b6106c6565b005b61022d60048036038101906102289190611436565b610920565b005b61024960048036038101906102449190611590565b6109a6565b6040516102569190611666565b60405180910390f35b60007f9061b923000000000000000000000000000000000000000000000000000000007bffffffffffffffffffffffffffffffffffffffffffffffffffffffff1916827bffffffffffffffffffffffffffffffffffffffffffffffffffffffff191614806102d257506102d182610a54565b5b9050919050565b60006102e785858585610abe565b9050949350505050565b600180546102fe90611936565b80601f016020809104026020016040519081016040528092919081815260200182805461032a90611936565b80156103775780601f1061034c57610100808354040283529160200191610377565b820191906000526020600020905b81548152906001019060200180831161035a57829003601f168201915b505050505081565b610387610b05565b6103916000610b8c565b565b60026020528060005260406000206000915054906101000a900460ff1681565b6103bb610b05565b8181600191826103cc929190611b28565b505050565b60008060009054906101000a900473ffffffffffffffffffffffffffffffffffffffff16905090565b60606000639061b92360e01b8686868660405160240161041d9493929190611c25565b604051602081830303815290604052907bffffffffffffffffffffffffffffffffffffffffffffffffffffffff19166020820180517bffffffffffffffffffffffffffffffffffffffffffffffffffffffff838183161783525050505090506000600167ffffffffffffffff81111561049957610498611197565b5b6040519080825280602002602001820160405280156104cc57816020015b60608152602001906001900390816104b75790505b509050600180546104dc90611936565b80601f016020809104026020016040519081016040528092919081815260200182805461050890611936565b80156105555780601f1061052a57610100808354040283529160200191610555565b820191906000526020600020905b81548152906001019060200180831161053857829003601f168201915b50505050508160008151811061056e5761056d611c60565b5b602002602001018190525030818363f4d4d2f860e01b8530604051602001610597929190611c8f565b6040516020818303038152906040526040517f556f18300000000000000000000000000000000000000000000000000000000081526004016105dd959493929190611dda565b60405180910390fd5b6105ee610b05565b60005b828290508110156106885760016002600085858581811061061557610614611c60565b5b905060200201602081019061062a9190611436565b73ffffffffffffffffffffffffffffffffffffffff1673ffffffffffffffffffffffffffffffffffffffff16815260200190815260200160002060006101000a81548160ff02191690831515021790555080806001019150506105f1565b507fab0b9cc3a46b568cb08d985497cde8ab7e18892d01f58db7dc7f0d2af859b2d782826040516106ba929190611f05565b60405180910390a15050565b60006106d0610c50565b905060008160000160089054906101000a900460ff1615905060008260000160009054906101000a900467ffffffffffffffff1690506000808267ffffffffffffffff1614801561071e5750825b9050600060018367ffffffffffffffff16148015610753575060003073ffffffffffffffffffffffffffffffffffffffff163b145b905081158015610761575080155b15610798576040517ff92ee8a900000000000000000000000000000000000000000000000000000000815260040160405180910390fd5b60018560000160006101000a81548167ffffffffffffffff021916908367ffffffffffffffff16021790555083156107e85760018560000160086101000a81548160ff0219169083151502179055505b86600190816107f79190611f29565b5060005b86518110156108835760016002600089848151811061081d5761081c611c60565b5b602002602001015173ffffffffffffffffffffffffffffffffffffffff1673ffffffffffffffffffffffffffffffffffffffff16815260200190815260200160002060006101000a81548160ff02191690831515021790555080806001019150506107fb565b507fab0b9cc3a46b568cb08d985497cde8ab7e18892d01f58db7dc7f0d2af859b2d7866040516108b39190612081565b60405180910390a183156109175760008560000160086101000a81548160ff0219169083151502179055507fc7f505b2f371ae2175ee4913f4499e1f2633a7b5936321eed1cdaeb6115181d2600160405161090e91906120de565b60405180910390a15b50505050505050565b610928610b05565b600073ffffffffffffffffffffffffffffffffffffffff168173ffffffffffffffffffffffffffffffffffffffff160361099a5760006040517f1e4fbdf7000000000000000000000000000000000000000000000000000000008152600401610991919061151f565b60405180910390fd5b6109a381610b8c565b50565b60606000806109b785858989610c78565b91509150600260008373ffffffffffffffffffffffffffffffffffffffff1673ffffffffffffffffffffffffffffffffffffffff16815260200190815260200160002060009054906101000a900460ff16610a47576040517f08c379a0000000000000000000000000000000000000000000000000000000008152600401610a3e9061216b565b60405180910390fd5b8092505050949350505050565b60007f01ffc9a7000000000000000000000000000000000000000000000000000000007bffffffffffffffffffffffffffffffffffffffffffffffffffffffff1916827bffffffffffffffffffffffffffffffffffffffffffffffffffffffff1916149050919050565b6000848484805190602001208480519060200120604051602001610ae59493929190612281565b604051602081830303815290604052805190602001209050949350505050565b610b0d610d27565b73ffffffffffffffffffffffffffffffffffffffff16610b2b6103d1565b73ffffffffffffffffffffffffffffffffffffffff1614610b8a57610b4e610d27565b6040517f118cdaa7000000000000000000000000000000000000000000000000000000008152600401610b81919061151f565b60405180910390fd5b565b60008060009054906101000a900473ffffffffffffffffffffffffffffffffffffffff169050816000806101000a81548173ffffffffffffffffffffffffffffffffffffffff021916908373ffffffffffffffffffffffffffffffffffffffff1602179055508173ffffffffffffffffffffffffffffffffffffffff168173ffffffffffffffffffffffffffffffffffffffff167f8be0079c531659141344cd1fd0a4f28419497f9722a3daafe3b4186f6b6457e060405160405180910390a35050565b60007ff0c57e16840df040f15088dc2f81fe391c3923bec73e23a9662efc9c229c6a00905090565b6000606060008060008686810190610c9091906122da565b9250925092506000808a8a810190610ca891906123a3565b915091506000610cc3610cbd8387868a610abe565b85610d2f565b9050428567ffffffffffffffff161015610d12576040517f08c379a0000000000000000000000000000000000000000000000000000000008152600401610d0990612471565b60405180910390fd5b80869750975050505050505094509492505050565b600033905090565b600080600080610d3f8686610d5b565b925092509250610d4f8282610db7565b82935050505092915050565b60008060006041845103610da05760008060006020870151925060408701519150606087015160001a9050610d9288828585610f1b565b955095509550505050610db0565b60006002855160001b9250925092505b9250925092565b60006003811115610dcb57610dca612491565b5b826003811115610dde57610ddd612491565b5b0315610f175760016003811115610df857610df7612491565b5b826003811115610e0b57610e0a612491565b5b03610e42576040517ff645eedf00000000000000000000000000000000000000000000000000000000815260040160405180910390fd5b60026003811115610e5657610e55612491565b5b826003811115610e6957610e68612491565b5b03610eae578060001c6040517ffce698f7000000000000000000000000000000000000000000000000000000008152600401610ea591906124cf565b60405180910390fd5b600380811115610ec157610ec0612491565b5b826003811115610ed457610ed3612491565b5b03610f1657806040517fd78bce0c000000000000000000000000000000000000000000000000000000008152600401610f0d919061137a565b60405180910390fd5b5b5050565b60008060007f7fffffffffffffffffffffffffffffff5d576e7357a4501ddfe92f46681b20a08460001c1115610f5b576000600385925092509250611005565b600060018888888860405160008152602001604052604051610f809493929190612506565b6020604051602081039080840390855afa158015610fa2573d6000803e3d6000fd5b505050602060405103519050600073ffffffffffffffffffffffffffffffffffffffff168173ffffffffffffffffffffffffffffffffffffffff1603610ff657600060016000801b93509350935050611005565b8060008060001b935093509350505b9450945094915050565b6000604051905090565b600080fd5b600080fd5b60007fffffffff0000000000000000000000000000000000000000000000000000000082169050919050565b61105881611023565b811461106357600080fd5b50565b6000813590506110758161104f565b92915050565b60006020828403121561109157611090611019565b5b600061109f84828501611066565b91505092915050565b60008115159050919050565b6110bd816110a8565b82525050565b60006020820190506110d860008301846110b4565b92915050565b600073ffffffffffffffffffffffffffffffffffffffff82169050919050565b6000611109826110de565b9050919050565b611119816110fe565b811461112457600080fd5b50565b60008135905061113681611110565b92915050565b600067ffffffffffffffff82169050919050565b6111598161113c565b811461116457600080fd5b50565b60008135905061117681611150565b92915050565b600080fd5b600080fd5b6000601f19601f8301169050919050565b7f4e487b7100000000000000000000000000000000000000000000000000000000600052604160045260246000fd5b6111cf82611186565b810181811067ffffffffffffffff821117156111ee576111ed611197565b5b80604052505050565b600061120161100f565b905061120d82826111c6565b919050565b600067ffffffffffffffff82111561122d5761122c611197565b5b61123682611186565b9050602081019050919050565b82818337600083830152505050565b600061126561126084611212565b6111f7565b90508281526020810184848401111561128157611280611181565b5b61128c848285611243565b509392505050565b600082601f8301126112a9576112a861117c565b5b81356112b9848260208601611252565b91505092915050565b600080600080608085870312156112dc576112db611019565b5b60006112ea87828801611127565b94505060206112fb87828801611167565b935050604085013567ffffffffffffffff81111561131c5761131b61101e565b5b61132887828801611294565b925050606085013567ffffffffffffffff8111156113495761134861101e565b5b61135587828801611294565b91505092959194509250565b6000819050919050565b61137481611361565b82525050565b600060208201905061138f600083018461136b565b92915050565b600081519050919050565b600082825260208201905092915050565b60005b838110156113cf5780820151818401526020810190506113b4565b60008484015250505050565b60006113e682611395565b6113f081856113a0565b93506114008185602086016113b1565b61140981611186565b840191505092915050565b6000602082019050818103600083015261142e81846113db565b905092915050565b60006020828403121561144c5761144b611019565b5b600061145a84828501611127565b91505092915050565b600080fd5b600080fd5b60008083601f8401126114835761148261117c565b5b8235905067ffffffffffffffff8111156114a05761149f611463565b5b6020830191508360018202830111156114bc576114bb611468565b5b9250929050565b600080602083850312156114da576114d9611019565b5b600083013567ffffffffffffffff8111156114f8576114f761101e565b5b6115048582860161146d565b92509250509250929050565b611519816110fe565b82525050565b60006020820190506115346000830184611510565b92915050565b60008083601f8401126115505761154f61117c565b5b8235905067ffffffffffffffff81111561156d5761156c611463565b5b60208301915083600182028301111561158957611588611468565b5b9250929050565b600080600080604085870312156115aa576115a9611019565b5b600085013567ffffffffffffffff8111156115c8576115c761101e565b5b6115d48782880161153a565b9450945050602085013567ffffffffffffffff8111156115f7576115f661101e565b5b6116038782880161153a565b925092505092959194509250565b600081519050919050565b600082825260208201905092915050565b600061163882611611565b611642818561161c565b93506116528185602086016113b1565b61165b81611186565b840191505092915050565b60006020820190508181036000830152611680818461162d565b905092915050565b60008083601f84011261169e5761169d61117c565b5b8235905067ffffffffffffffff8111156116bb576116ba611463565b5b6020830191508360208202830111156116d7576116d6611468565b5b9250929050565b600080602083850312156116f5576116f4611019565b5b600083013567ffffffffffffffff8111156117135761171261101e565b5b61171f85828601611688565b92509250509250929050565b600067ffffffffffffffff82111561174657611745611197565b5b61174f82611186565b9050602081019050919050565b600061176f61176a8461172b565b6111f7565b90508281526020810184848401111561178b5761178a611181565b5b611796848285611243565b509392505050565b600082601f8301126117b3576117b261117c565b5b81356117c384826020860161175c565b91505092915050565b600067ffffffffffffffff8211156117e7576117e6611197565b5b602082029050602081019050919050565b600061180b611806846117cc565b6111f7565b9050808382526020820190506020840283018581111561182e5761182d611468565b5b835b8181101561185757806118438882611127565b845260208401935050602081019050611830565b5050509392505050565b600082601f8301126118765761187561117c565b5b81356118868482602086016117f8565b91505092915050565b600080604083850312156118a6576118a5611019565b5b600083013567ffffffffffffffff8111156118c4576118c361101e565b5b6118d08582860161179e565b925050602083013567ffffffffffffffff8111156118f1576118f061101e565b5b6118fd85828601611861565b9150509250929050565b7f4e487b7100000000000000000000000000000000000000000000000000000000600052602260045260246000fd5b6000600282049050600182168061194e57607f821691505b60208210810361196157611960611907565b5b50919050565b600082905092915050565b60008190508160005260206000209050919050565b60006020601f8301049050919050565b600082821b905092915050565b6000600883026119d47fffffffffffffffffffffffffffffffffffffffffffffffffffffffffffffffff82611997565b6119de8683611997565b95508019841693508086168417925050509392505050565b6000819050919050565b6000819050919050565b6000611a25611a20611a1b846119f6565b611a00565b6119f6565b9050919050565b6000819050919050565b611a3f83611a0a565b611a53611a4b82611a2c565b8484546119a4565b825550505050565b600090565b611a68611a5b565b611a73818484611a36565b505050565b5b81811015611a9757611a8c600082611a60565b600181019050611a79565b5050565b601f821115611adc57611aad81611972565b611ab684611987565b81016020851015611ac5578190505b611ad9611ad185611987565b830182611a78565b50505b505050565b600082821c905092915050565b6000611aff60001984600802611ae1565b1980831691505092915050565b6000611b188383611aee565b9150826002028217905092915050565b611b328383611967565b67ffffffffffffffff811115611b4b57611b4a611197565b5b611b558254611936565b611b60828285611a9b565b6000601f831160018114611b8f5760008415611b7d578287013590505b611b878582611b0c565b865550611bef565b601f198416611b9d86611972565b60005b82811015611bc557848901358255600182019150602085019450602081019050611ba0565b86831015611be25784890135611bde601f891682611aee565b8355505b6001600288020188555050505b50505050505050565b6000611c04838561161c565b9350611c11838584611243565b611c1a83611186565b840190509392505050565b60006040820190508181036000830152611c40818688611bf8565b90508181036020830152611c55818486611bf8565b905095945050505050565b7f4e487b7100000000000000000000000000000000000000000000000000000000600052603260045260246000fd5b60006040820190508181036000830152611ca9818561162d565b9050611cb86020830184611510565b9392505050565b600081519050919050565b600082825260208201905092915050565b6000819050602082019050919050565b600082825260208201905092915050565b6000611d0782611395565b611d118185611ceb565b9350611d218185602086016113b1565b611d2a81611186565b840191505092915050565b6000611d418383611cfc565b905092915050565b6000602082019050919050565b6000611d6182611cbf565b611d6b8185611cca565b935083602082028501611d7d85611cdb565b8060005b85811015611db95784840389528151611d9a8582611d35565b9450611da583611d49565b925060208a01995050600181019050611d81565b50829750879550505050505092915050565b611dd481611023565b82525050565b600060a082019050611def6000830188611510565b8181036020830152611e018187611d56565b90508181036040830152611e15818661162d565b9050611e246060830185611dcb565b8181036080830152611e36818461162d565b90509695505050505050565b600082825260208201905092915050565b6000819050919050565b611e66816110fe565b82525050565b6000611e788383611e5d565b60208301905092915050565b6000611e936020840184611127565b905092915050565b6000602082019050919050565b6000611eb48385611e42565b9350611ebf82611e53565b8060005b85811015611ef857611ed58284611e84565b611edf8882611e6c565b9750611eea83611e9b565b925050600181019050611ec3565b5085925050509392505050565b60006020820190508181036000830152611f20818486611ea8565b90509392505050565b611f3282611395565b67ffffffffffffffff811115611f4b57611f4a611197565b5b611f558254611936565b611f60828285611a9b565b600060209050601f831160018114611f935760008415611f81578287015190505b611f8b8582611b0c565b865550611ff3565b601f198416611fa186611972565b60005b82811015611fc957848901518255600182019150602085019450602081019050611fa4565b86831015611fe65784890151611fe2601f891682611aee565b8355505b6001600288020188555050505b505050505050565b600081519050919050565b6000819050602082019050919050565b6000602082019050919050565b600061202e82611ffb565b6120388185611e42565b935061204383612006565b8060005b8381101561207457815161205b8882611e6c565b975061206683612016565b925050600181019050612047565b5085935050505092915050565b6000602082019050818103600083015261209b8184612023565b905092915050565b6000819050919050565b60006120c86120c36120be846120a3565b611a00565b61113c565b9050919050565b6120d8816120ad565b82525050565b60006020820190506120f360008301846120cf565b92915050565b7f5369676e617475726556657269666965723a20496e76616c696420736967617460008201527f7572650000000000000000000000000000000000000000000000000000000000602082015250565b60006121556023836113a0565b9150612160826120f9565b604082019050919050565b6000602082019050818103600083015261218481612148565b9050919050565b600081905092915050565b7f1900000000000000000000000000000000000000000000000000000000000000600082015250565b60006121cc60028361218b565b91506121d782612196565b600282019050919050565b60008160601b9050919050565b60006121fa826121e2565b9050919050565b600061220c826121ef565b9050919050565b61222461221f826110fe565b612201565b82525050565b60008160c01b9050919050565b60006122428261222a565b9050919050565b61225a6122558261113c565b612237565b82525050565b6000819050919050565b61227b61227682611361565b612260565b82525050565b600061228c826121bf565b91506122988287612213565b6014820191506122a88286612249565b6008820191506122b8828561226a565b6020820191506122c8828461226a565b60208201915081905095945050505050565b6000806000606084860312156122f3576122f2611019565b5b600084013567ffffffffffffffff8111156123115761231061101e565b5b61231d86828701611294565b935050602061232e86828701611167565b925050604084013567ffffffffffffffff81111561234f5761234e61101e565b5b61235b86828701611294565b9150509250925092565b6000612370826110de565b9050919050565b61238081612365565b811461238b57600080fd5b50565b60008135905061239d81612377565b92915050565b600080604083850312156123ba576123b9611019565b5b600083013567ffffffffffffffff8111156123d8576123d761101e565b5b6123e485828601611294565b92505060206123f58582860161238e565b9150509250929050565b7f5369676e617475726556657269666965723a205369676e61747572652065787060008201527f6972656400000000000000000000000000000000000000000000000000000000602082015250565b600061245b6024836113a0565b9150612466826123ff565b604082019050919050565b6000602082019050818103600083015261248a8161244e565b9050919050565b7f4e487b7100000000000000000000000000000000000000000000000000000000600052602160045260246000fd5b6124c9816119f6565b82525050565b60006020820190506124e460008301846124c0565b92915050565b600060ff82169050919050565b612500816124ea565b82525050565b600060808201905061251b600083018761136b565b61252860208301866124f7565b612535604083018561136b565b612542606083018461136b565b9594505050505056fea2646970667358221220767487219e85098f12d1bd65ea4f86a278f2d3a91c85914eb8d07034fa4d93a264736f6c63430008180033",
  "linkReferences": {},
  "deployedLinkReferences": {}
}